{
  "contractName": "SupplyChain",
  "abi": [
    {
      "inputs": [],
      "payable": false,
      "stateMutability": "nonpayable",
      "type": "constructor"
    },
    {
      "anonymous": false,
      "inputs": [
        {
          "indexed": false,
          "internalType": "string",
          "name": "qr",
          "type": "string"
        },
        {
          "indexed": false,
          "internalType": "uint256",
          "name": "id",
          "type": "uint256"
        },
        {
          "indexed": false,
          "internalType": "string",
          "name": "name",
          "type": "string"
        }
      ],
      "name": "MedicineCreated",
      "type": "event"
    },
    {
      "constant": true,
      "inputs": [
        {
          "internalType": "string",
          "name": "",
          "type": "string"
        }
      ],
      "name": "medicines",
      "outputs": [
        {
          "internalType": "uint256",
          "name": "id",
          "type": "uint256"
        },
        {
          "internalType": "string",
          "name": "name",
          "type": "string"
        },
        {
          "internalType": "address",
          "name": "manufacture_address",
          "type": "address"
        },
        {
          "internalType": "string",
          "name": "expire_date",
          "type": "string"
        },
        {
          "internalType": "enum SupplyChain.Status",
          "name": "status",
          "type": "uint8"
        }
      ],
      "payable": false,
      "stateMutability": "view",
      "type": "function"
    },
    {
      "constant": false,
      "inputs": [
        {
          "internalType": "string",
          "name": "newScanHashCode",
          "type": "string"
        },
        {
          "internalType": "uint256",
          "name": "id",
          "type": "uint256"
        },
        {
          "internalType": "string",
          "name": "name",
          "type": "string"
        },
        {
          "internalType": "string",
          "name": "expire",
          "type": "string"
        },
        {
          "internalType": "string",
          "name": "timeNow",
          "type": "string"
        }
      ],
      "name": "createMedicine",
      "outputs": [],
      "payable": false,
      "stateMutability": "nonpayable",
      "type": "function"
    },
    {
      "constant": false,
      "inputs": [
        {
          "internalType": "string",
          "name": "scannedId",
          "type": "string"
        },
        {
          "internalType": "string",
          "name": "timeNow",
          "type": "string"
        }
      ],
      "name": "transporterReceiveMedicineFromManufacture",
      "outputs": [],
      "payable": false,
      "stateMutability": "nonpayable",
      "type": "function"
    },
    {
      "constant": false,
      "inputs": [
        {
          "internalType": "string",
          "name": "scannedId",
          "type": "string"
        },
        {
          "internalType": "string",
          "name": "timeNow",
          "type": "string"
        }
      ],
      "name": "wholesalerReceiveMedicine",
      "outputs": [],
      "payable": false,
      "stateMutability": "nonpayable",
      "type": "function"
    },
    {
      "constant": false,
      "inputs": [
        {
          "internalType": "string",
          "name": "scannedId",
          "type": "string"
        },
        {
          "internalType": "string",
          "name": "timeNow",
          "type": "string"
        }
      ],
      "name": "transporterReceiveMedicineFromWholesaler",
      "outputs": [],
      "payable": false,
      "stateMutability": "nonpayable",
      "type": "function"
    },
    {
      "constant": false,
      "inputs": [
        {
          "internalType": "string",
          "name": "scannedId",
          "type": "string"
        },
        {
          "internalType": "string",
          "name": "timeNow",
          "type": "string"
        }
      ],
      "name": "distributorReceiveMedicine",
      "outputs": [],
      "payable": false,
      "stateMutability": "nonpayable",
      "type": "function"
    },
    {
      "constant": false,
      "inputs": [
        {
          "internalType": "string",
          "name": "scannedId",
          "type": "string"
        }
      ],
      "name": "soldToCustomer",
      "outputs": [],
      "payable": false,
      "stateMutability": "nonpayable",
      "type": "function"
    },
    {
      "constant": true,
      "inputs": [
        {
          "internalType": "string",
          "name": "scannedId",
          "type": "string"
        }
      ],
      "name": "getScannedMedicineDetails",
      "outputs": [
        {
          "components": [
            {
              "internalType": "uint256",
              "name": "id",
              "type": "uint256"
            },
            {
              "internalType": "string",
              "name": "name",
              "type": "string"
            },
            {
              "internalType": "address",
              "name": "manufacture_address",
              "type": "address"
            },
            {
              "internalType": "string",
              "name": "expire_date",
              "type": "string"
            },
            {
              "internalType": "enum SupplyChain.Status",
              "name": "status",
              "type": "uint8"
            },
            {
              "components": [
                {
                  "internalType": "string",
                  "name": "arrival_time",
                  "type": "string"
                },
                {
                  "internalType": "address",
                  "name": "holder_address",
                  "type": "address"
                }
              ],
              "internalType": "struct SupplyChain.Logs[]",
              "name": "logs",
              "type": "tuple[]"
            }
          ],
          "internalType": "struct SupplyChain.Medicine",
          "name": "",
          "type": "tuple"
        }
      ],
      "payable": false,
      "stateMutability": "view",
      "type": "function"
    }
  ],
  "bytecode": "0x608060405234801561001057600080fd5b50600080546001600160a01b03191633179055610fb2806100326000396000f3fe608060405234801561001057600080fd5b50600436106100885760003560e01c806365277a791161005b57806365277a791461010257806377d49a29146101155780639fb8330f14610128578063bc55e5611461013b57610088565b80631ea347591461008d57806321b9da99146100b65780633a25e0a8146100da57806357aa6f21146100ef575b600080fd5b6100a061009b366004610a17565b61014e565b6040516100ad9190610e0a565b60405180910390f35b6100c96100c4366004610a59565b610401565b6040516100ad959493929190610e1b565b6100ed6100e8366004610a96565b61055f565b005b6100ed6100fd366004610a96565b61063b565b6100ed610110366004610a59565b610642565b6100ed610123366004610aff565b610682565b6100ed610136366004610a96565b610864565b6100ed610149366004610a96565b61086b565b610156610872565b60018383604051610168929190610dbf565b90815260200160405180910390206040518060c001604052908160008201548152602001600182018054600181600116156101000203166002900480601f0160208091040260200160405190810160405280929190818152602001828054600181600116156101000203166002900480156102245780601f106101f957610100808354040283529160200191610224565b820191906000526020600020905b81548152906001019060200180831161020757829003601f168201915b50505091835250506002828101546001600160a01b031660208084019190915260038401805460408051601f600019600185161561010002019093169590950491820184900484028501840181528185529094019390918301828280156102cc5780601f106102a1576101008083540402835291602001916102cc565b820191906000526020600020905b8154815290600101906020018083116102af57829003601f168201915b5050509183525050600482015460209091019060ff1660058111156102ed57fe5b60058111156102f857fe5b815260200160058201805480602002602001604051908101604052809291908181526020016000905b828210156103f05760008481526020908190206040805160028681029093018054600181161561010002600019011693909304601f8101859004909402810160609081018352918101848152909384928491908401828280156103c55780601f1061039a576101008083540402835291602001916103c5565b820191906000526020600020905b8154815290600101906020018083116103a857829003601f168201915b50505091835250506001918201546001600160a01b0316602091820152918352929092019101610321565b505050508152505090505b92915050565b80516020818301810180516001808352938301948301949094209390528254838301805460408051600296831615610100026000190190921695909504601f810185900485028201850190955284815291949391929091908301828280156104aa5780601f1061047f576101008083540402835291602001916104aa565b820191906000526020600020905b81548152906001019060200180831161048d57829003601f168201915b505050506002838101546003850180546040805160206101006001851615026000190190931695909504601f810183900483028601830190915280855295966001600160a01b039093169592945090919083018282801561054c5780601f106105215761010080835404028352916020019161054c565b820191906000526020600020905b81548152906001019060200180831161052f57829003601f168201915b5050506004909301549192505060ff1685565b60045b6001836040516105729190610dcc565b908152604051908190036020019020600401805460ff1916600183600581111561059857fe5b02179055506105a56108bc565b5060408051808201825282815233602082015290516001906105c8908590610dcc565b90815260405160209181900382019020600501805460018101808355600092835291839020845180519394869460029094029092019261060b92849201906108d4565b5060209190910151600190910180546001600160a01b0319166001600160a01b0390921691909117905550505050565b6003610562565b60056001826040516106549190610dcc565b908152604051908190036020019020600401805460ff1916600183600581111561067a57fe5b021790555050565b836001866040516106939190610dcc565b9081526040519081900360200181209190915583906001906106b6908890610dcc565b908152602001604051809103902060010190805190602001906106da9291906108d4565b5060006001866040516106ed9190610dcc565b908152604051908190036020019020600401805460ff1916600183600581111561071357fe5b0217905550336001866040516107299190610dcc565b908152602001604051809103902060020160006101000a8154816001600160a01b0302191690836001600160a01b031602179055508160018660405161076f9190610dcc565b908152602001604051809103902060030190805190602001906107939291906108d4565b506001856040516107a49190610dcc565b9081526040805160209281900383018120818301909252838152338382015260059091018054600181018083556000928352918490208351805193956002909302909101926107f692849201906108d4565b5060209190910151600190910180546001600160a01b0319166001600160a01b03909216919091179055506040517f701801dfb3b677e9e202051855fee0c4bee49b0aaef0c9ecb71878802e8276369061085590879087908790610dd8565b60405180910390a15050505050565b6002610562565b6001610562565b6040518060c00160405280600081526020016060815260200160006001600160a01b0316815260200160608152602001600060058111156108af57fe5b8152602001606081525090565b60408051808201909152606081526000602082015290565b828054600181600116156101000203166002900490600052602060002090601f016020900481019282601f1061091557805160ff1916838001178555610942565b82800160010185558215610942579182015b82811115610942578251825591602001919060010190610927565b5061094e929150610952565b5090565b61096c91905b8082111561094e5760008155600101610958565b90565b60008083601f84011261098157600080fd5b50813567ffffffffffffffff81111561099957600080fd5b6020830191508360018202830111156109b157600080fd5b9250929050565b600082601f8301126109c957600080fd5b81356109dc6109d782610e9c565b610e75565b915080825260208301602083018583830111156109f857600080fd5b610a03838284610f08565b50505092915050565b80356103fb81610f5b565b60008060208385031215610a2a57600080fd5b823567ffffffffffffffff811115610a4157600080fd5b610a4d8582860161096f565b92509250509250929050565b600060208284031215610a6b57600080fd5b813567ffffffffffffffff811115610a8257600080fd5b610a8e848285016109b8565b949350505050565b60008060408385031215610aa957600080fd5b823567ffffffffffffffff811115610ac057600080fd5b610acc858286016109b8565b925050602083013567ffffffffffffffff811115610ae957600080fd5b610af5858286016109b8565b9150509250929050565b600080600080600060a08688031215610b1757600080fd5b853567ffffffffffffffff811115610b2e57600080fd5b610b3a888289016109b8565b9550506020610b4b88828901610a0c565b945050604086013567ffffffffffffffff811115610b6857600080fd5b610b74888289016109b8565b935050606086013567ffffffffffffffff811115610b9157600080fd5b610b9d888289016109b8565b925050608086013567ffffffffffffffff811115610bba57600080fd5b610bc6888289016109b8565b9150509295509295909350565b6000610bdf8383610cf2565b9392505050565b610bef81610edc565b82525050565b6000610c0082610eca565b610c0a8185610ece565b935083602082028501610c1c85610ec4565b8060005b85811015610c565784840389528151610c398582610bd3565b9450610c4483610ec4565b60209a909a0199925050600101610c20565b5091979650505050505050565b610bef81610efd565b6000610c788385610ed7565b9350610c85838584610f08565b50500190565b6000610c9682610eca565b610ca08185610ece565b9350610cb0818560208601610f14565b610cb981610f44565b9093019392505050565b6000610cce82610eca565b610cd88185610ed7565b9350610ce8818560208601610f14565b9290920192915050565b8051604080845260009190840190610d0a8282610c8b565b9150506020830151610d1f6020860182610be6565b509392505050565b805160009060c0840190610d3b8582610db6565b5060208301518482036020860152610d538282610c8b565b9150506040830151610d686040860182610be6565b5060608301518482036060860152610d808282610c8b565b9150506080830151610d956080860182610c63565b5060a083015184820360a0860152610dad8282610bf5565b95945050505050565b610bef8161096c565b6000610a8e828486610c6c565b6000610bdf8284610cc3565b60608082528101610de98186610c8b565b9050610df86020830185610db6565b8181036040830152610dad8184610c8b565b60208082528101610bdf8184610d27565b60a08101610e298288610db6565b8181036020830152610e3b8187610c8b565b9050610e4a6040830186610be6565b8181036060830152610e5c8185610c8b565b9050610e6b6080830184610c63565b9695505050505050565b60405181810167ffffffffffffffff81118282101715610e9457600080fd5b604052919050565b600067ffffffffffffffff821115610eb357600080fd5b506020601f91909101601f19160190565b60200190565b5190565b90815260200190565b919050565b60006103fb82610ef1565b80610ed781610f4e565b6001600160a01b031690565b60006103fb82610ee7565b82818337506000910152565b60005b83811015610f2f578181015183820152602001610f17565b83811115610f3e576000848401525b50505050565b601f01601f191690565b60068110610f5857fe5b50565b610f648161096c565b8114610f5857600080fdfea365627a7a72315820d00b4253aed8e2163c65076906368412ace529ed8c5d04c606e6c47c13cb11e96c6578706572696d656e74616cf564736f6c63430005100040",
  "source": "pragma solidity >=0.4.22 <0.9.0;\r\npragma experimental ABIEncoderV2;\r\n\r\ncontract SupplyChain {\r\n    address owner;\r\n    constructor() public {\r\n        owner = msg.sender;\r\n        // address that deploys contract will be the owner\r\n    }\r\n\r\n    enum Status {\r\n        AtManufacture,\r\n        AtTransporter1,\r\n        AtWholesaler,\r\n        AtTransporter2,\r\n        AtDistributor,\r\n        AtCustomer\r\n    }\r\n    struct Logs {\r\n        string arrival_time;\r\n        address holder_address;\r\n    }\r\n\r\n    struct Medicine {\r\n        uint256 id;\r\n        string name;\r\n        address manufacture_address;\r\n        string expire_date;\r\n        Status status;\r\n        Logs[] logs;\r\n    }\r\n\r\n    mapping(string => Medicine) public medicines;\r\n\r\n    event MedicineCreated(\r\n        string qr,\r\n        uint256 id,\r\n        string name);\r\n\r\n    function createMedicine(string memory newScanHashCode, uint id, string memory name, string memory expire, string memory timeNow) public {\r\n        medicines[newScanHashCode].id = id;\r\n        medicines[newScanHashCode].name = name;\r\n        medicines[newScanHashCode].status = Status(0);\r\n        medicines[newScanHashCode].manufacture_address = msg.sender;\r\n        medicines[newScanHashCode].expire_date = expire;\r\n        medicines[newScanHashCode].logs.push(Logs(timeNow, msg.sender));\r\n        emit MedicineCreated(newScanHashCode, id, name);\r\n    }\r\n\r\n    function transporterReceiveMedicineFromManufacture(string memory scannedId, string memory timeNow) public {\r\n        medicines[scannedId].status = Status(1);\r\n        Logs memory newLog = Logs(timeNow, msg.sender);\r\n        medicines[scannedId].logs.push(newLog);\r\n    }\r\n\r\n    function wholesalerReceiveMedicine(string memory scannedId, string memory timeNow) public {\r\n        medicines[scannedId].status = Status(2);\r\n        Logs memory newLog = Logs(timeNow, msg.sender);\r\n        medicines[scannedId].logs.push(newLog);\r\n    }\r\n\r\n    function transporterReceiveMedicineFromWholesaler(string memory scannedId, string memory timeNow) public {\r\n        medicines[scannedId].status = Status(3);\r\n        Logs memory newLog = Logs(timeNow, msg.sender);\r\n        medicines[scannedId].logs.push(newLog);\r\n    }\r\n\r\n    function distributorReceiveMedicine(string memory scannedId, string memory timeNow) public {\r\n        medicines[scannedId].status = Status(4);\r\n        Logs memory newLog = Logs(timeNow, msg.sender);\r\n        medicines[scannedId].logs.push(newLog);\r\n    }\r\n\r\n    function soldToCustomer(string memory scannedId) public {\r\n        medicines[scannedId].status = Status(5);\r\n    }\r\n\r\n    function getScannedMedicineDetails(string calldata scannedId) external view returns (Medicine memory){\r\n        return medicines[scannedId];\r\n    }\r\n\r\n}\r\n",
  "sourcePath": "D:\\FLUTTER_APPS\\anti_forge_dapp\\contracts\\SupplyChain.sol",
  "compiler": {
    "name": "solc",
    "version": "0.5.16+commit.9c3226ce.Emscripten.clang"
  },
  "schemaVersion": "3.4.10",
  "updatedAt": "2022-11-23T11:33:21.169Z",
  "devdoc": {
    "methods": {}
  },
  "userdoc": {
    "methods": {}
  }
}