{
  "contractName": "SupplyChain",
  "abi": [
    {
      "anonymous": false,
      "inputs": [
        {
          "indexed": false,
          "internalType": "uint256",
          "name": "count",
          "type": "uint256"
        },
        {
          "indexed": false,
          "internalType": "uint256",
          "name": "id",
          "type": "uint256"
        },
        {
          "indexed": false,
          "internalType": "string",
          "name": "name",
          "type": "string"
        }
      ],
      "name": "MedicineCreated",
      "type": "event"
    },
    {
      "constant": true,
      "inputs": [],
      "name": "count",
      "outputs": [
        {
          "internalType": "uint256",
          "name": "",
          "type": "uint256"
        }
      ],
      "payable": false,
      "stateMutability": "view",
      "type": "function"
    },
    {
      "constant": true,
      "inputs": [
        {
          "internalType": "uint256",
          "name": "",
          "type": "uint256"
        }
      ],
      "name": "medicines",
      "outputs": [
        {
          "internalType": "uint256",
          "name": "id",
          "type": "uint256"
        },
        {
          "internalType": "string",
          "name": "name",
          "type": "string"
        }
      ],
      "payable": false,
      "stateMutability": "view",
      "type": "function"
    },
    {
      "constant": false,
      "inputs": [
        {
          "internalType": "uint256",
          "name": "id",
          "type": "uint256"
        },
        {
          "internalType": "string",
          "name": "name",
          "type": "string"
        }
      ],
      "name": "createMedicine",
      "outputs": [],
      "payable": false,
      "stateMutability": "nonpayable",
      "type": "function"
    }
  ],
  "bytecode": "0x60806040526000805534801561001457600080fd5b50610423806100246000396000f3fe608060405234801561001057600080fd5b50600436106100415760003560e01c806306661abd1461004657806333b93a0814610060578063c85e766d1461010f575b600080fd5b61004e6101ab565b60408051918252519081900360200190f35b61010d6004803603604081101561007657600080fd5b8135919081019060408101602082013564010000000081111561009857600080fd5b8201836020820111156100aa57600080fd5b803590602001918460018302840111640100000000831117156100cc57600080fd5b91908080601f0160208091040260200160405190810160405280939291908181526020018383808284376000920191909152509295506101b1945050505050565b005b61012c6004803603602081101561012557600080fd5b50356102ad565b6040518083815260200180602001828103825283818151815260200191508051906020019080838360005b8381101561016f578181015183820152602001610157565b50505050905090810190601f16801561019c5780820380516001836020036101000a031916815260200191505b50935050505060405180910390f35b60005481565b604080518082018252838152602080820184815260008054815260018084529490208351815590518051939491936101f193928501929190910190610353565b509050507f10098bfdd024c37dd06270bc1d723e46181be86a7bd1dc2d5fe456a8e5531f4a60005483836040518084815260200183815260200180602001828103825283818151815260200191508051906020019080838360005b8381101561026457818101518382015260200161024c565b50505050905090810190601f1680156102915780820380516001836020036101000a031916815260200191505b5094505050505060405180910390a15050600080546001019055565b600160208181526000928352604092839020805481840180548651600296821615610100026000190190911695909504601f810185900485028601850190965285855290949193929091908301828280156103495780601f1061031e57610100808354040283529160200191610349565b820191906000526020600020905b81548152906001019060200180831161032c57829003601f168201915b5050505050905082565b828054600181600116156101000203166002900490600052602060002090601f016020900481019282601f1061039457805160ff19168380011785556103c1565b828001600101855582156103c1579182015b828111156103c15782518255916020019190600101906103a6565b506103cd9291506103d1565b5090565b6103eb91905b808211156103cd57600081556001016103d7565b9056fea265627a7a72315820c451e0611e67b499e687749043bec957101fbf9b0a9a3c864297a1a69c5b561764736f6c63430005100032",
  "source": "pragma solidity >=0.4.22 <0.9.0;\r\n\r\ncontract SupplyChain {\r\n    uint public count = 0;\r\n\r\n    struct medicine {\r\n        uint256 id;\r\n        string name;\r\n    }\r\n\r\n    mapping(uint256 => medicine) public medicines;\r\n\r\n    event MedicineCreated(uint count, uint256 id, string name);\r\n\r\n    function createMedicine(uint id, string memory name) public {\r\n        medicines[count] = medicine(id, name);\r\n        emit MedicineCreated(count, id, name);\r\n        count++;\r\n    }\r\n\r\n\r\n}\r\n",
  "sourcePath": "D:\\FLUTTER_APPS\\anti_forge_dapp\\contracts\\SupplyChain.sol",
  "compiler": {
    "name": "solc",
    "version": "0.5.16+commit.9c3226ce.Emscripten.clang"
  },
  "schemaVersion": "3.4.10",
  "updatedAt": "2022-11-08T09:56:48.989Z",
  "networkType": "ethereum",
  "devdoc": {
    "methods": {}
  },
  "userdoc": {
    "methods": {}
  }
}